:020000041000EA
:1000000000B5324B212058609868022188439860DF
:10001000D860186158612E4B002199600221596106
:100020000121F02299502B49196001219960352056
:1000300000F044F80222904214D00621196600F024
:1000400034F8196E01211966002018661A6600F04E
:100050002CF8196E196E196E052000F02FF8012189
:100060000842F9D1002199601B49196000215960AB
:100070001A491B48016001219960EB211966A021F2
:10008000196600F012F800219960164914480160C1
:100090000121996001BC002800D000471248134993
:1000A000086003C880F30888084703B5996A0420EC
:1000B0000142FBD001200142F8D103BD02B5186610
:1000C0001866FFF7F2FF186E186E02BD00000240BE
:1000D000000000180000070000035F00212200005C
:1000E000F4000018222000A00001001008ED00E03C
:1000F00000000000000000000000000074B24E7A12
:1001000000200420F7010010C3010010C5010010F9
:10011000C1010010C1010010C1010010C101001097
:10012000C1010010C1010010C1010010C701001081
:10013000C1010010C1010010C9010010CB01001065
:10014000CD010010CD010010CD010010CD01001037
:10015000CD010010CD010010CD010010CD01001027
:10016000CD010010CD010010CD010010CD01001017
:10017000CD010010CD010010CD010010CD01001007
:10018000CD010010CD010010CD010010CD010010F7
:10019000CD010010CD010010CD010010CD010010E7
:1001A000CD010010CD010010CD010010CD010010D7
:1001B000CD010010CD010010CD010010CD010010C7
:1001C00000BE00BE00BE00BE00BE00BE00F04BF888
:1001D000103800BEF2EB887150600010786000109B
:1001E0003402001090A31AE700202149086006C8D5
:1001F00081F3088810471F48006800282FD10DA4FC
:100200000ECC002902D000F012F8F9E71A491B4A77
:10021000002000E001C19142FCD1194988471949E9
:1002200088471949884700BEFDE701C901C29A42C3
:10023000FBD3704778600010C0000020F404002059
:10024000AC6400100000042000000420AC64001026
:1002500000100420001004200000000070470B482C
:1002600002F03EFE0047EFF30580C0B27047000089
:1002700008ED00E0000000D0F80400206412002027
:10028000D1250010590D0010D1260010575600003E
:1002900006005250ABB36053AC5D001006005250E4
:1002A000861C0302BC5D0010060052505422A29D21
:1002B000CC5D001005005250DE65F468AC6400109F
:1002C000F8B5C0460448054B10B5834203D0044B33
:1002D000002B00D0984710BDF4040020F404002047
:1002E0000000000006480749091A8910CB0F591869
:1002F00010B5491003D0044B002B00D0984710BD17
:10030000F4040020F40400200000000010B5074CA5
:100310002378002B09D1FFF7D5FF054B002B02D026
:10032000044800E000BF0123237010BD0006002038
:1003300000000000E85C0010054B10B5002B03D056
:100340000449054800E000BFFFF7CCFF10BDC046E0
:100350000000000004060020E85C0010F0B5C6466E
:100360000300012700B51B0C84B0DCB2C6B2050047
:10037000019020000291039200F0E0FE3B00A340B8
:10038000D024240663623000A36100F0D7FE3B0056
:10039000B3402D0AEDB263621E2D34D96B46DB7A71
:1003A0001E2B03D86B461B7B1E2B13D902ABD0260A
:1003B0009846012701AC3606E5780134280000F0A4
:1003C000BDFE3B00AB407362A045F5D104B004BC58
:1003D0009046F0BD6B465B7B1E2BE7D86B469B7B44
:1003E0001E2BE3D803ABD0269846012701AC360676
:1003F000E5780134280000F0A1FE3B00AB407362B9
:100400004445F5D1E2E7AF40280000F097FE67626F
:10041000C4E7C046F0B54E464546DE4657460400A2
:10042000E0B589B003AE051C240CB260EAB2944674
:10043000E2B293460A0E90460422030092464246D8
:100440001B0A03907160DBB21E2A03D8327A1E2A7F
:1004500000D80CE1D02560462D066A680124C24010
:10046000224000926A6806AFDA4022400192F0789A
:100470006A68C24022403A706A683179CA402240B4
:100480007A706A687179CA402240BA706A68B17934
:10049000CA402240FA705246042A00D1F6E0414692
:1004A0006A68CA4022403A715246052A14D06A68E6
:1004B000317ACA4022407A715246062A0CD06A68C4
:1004C000717ACA402240BA715246082A04D16A6839
:1004D000B57AEA401440FC710124594622008A4052
:1004E0009146D02249461206916165462100A940F5
:1004F00091618B46210084409940230002919046EF
:10050000516194624C4699460120002101F0FCFAA9
:10051000434601205C61002101F0F6FA43465D6824
:100520004B46012000211D4001F0EEFA43469C613C
:10053000002DE9D1D0234C46019A1B065C62002AAB
:1005400000D17BE0029A5A61009B002B62D0D0233D
:100550005A461B065A610123F27893403A78002AE2
:1005600062D0D022120653610123327993407A7807
:10057000002A66D1D022120693610123727993403A
:10058000BA78002A66D0D022120653610123B279CC
:100590009340FA78002A66D0D0221206536153465F
:1005A000042B30D00123F27993403A79002A00D00D
:1005B000A3E0D022120693615346052B23D00123DA
:1005C000327A93407A79002A00D09AE0D02212063B
:1005D00093615346062B16D00123727A9340BA7961
:1005E000002A00D091E0D022120693615346082BD6
:1005F00009D1B27A073B9340FA79002A00D188E00A
:10060000D0221206536109B03CBC90469946A246DE
:10061000AB46F0BDD0235A461B069A610123F278FF
:1006200093403A78002A9CD1D0221206936101238C
:10063000327993407A78002A03D19BE7029A9A6133
:1006400082E7D02212065361012372799340BA786F
:10065000002A98D1D022120693610123B2799340E7
:10066000FA78002A98D1D0221206936197E7727A1D
:100670001E2A00D9EEE61E22B07A82429241032061
:100680008243924608229146CA44E3E65946220034
:100690008A406146AA61914622008A40AA61934637
:1006A000220084409A40230002926A61AC624C4668
:1006B00099460120002101F027FA012000216C61F8
:1006C00001F022FA4A466B6801201A409046002148
:1006D00001F01AFA01200021AC6101F015FA0120A5
:1006E00000216C6101F010FAAC610120002101F0E1
:1006F0000BFA4346002BDCD11CE7D02212065361D3
:100700005AE7D0221206536163E7D02212065361E2
:100710006CE7D0221206936175E7C046F0B51D0064
:1007200001234F464646D6469846C0B5070C84B0CE
:10073000FFB201ACBB40A26042461F00C3B29A4068
:10074000060AF6B20190616091461E2E00D985E03E
:10075000A268FFF75FFED0231B069A469F61012027
:10076000002101F0D1F953464A469A614346524668
:10077000B3409361E3791E2B03D8227A1E2A00D856
:1007800099E07F232A009A430123E1788B40002AD5
:1007900000D071E0D02212069361012322799340A8
:1007A0006A0600D571E0D0221206936101236279B6
:1007B0009340AA0600D571E0D0221206936101236E
:1007C000A2799340EA0600D571E0D0221206936127
:1007D000D02601200021360601F096F901200021E3
:1007E000776101F091F9B7610120002101F08CF9E6
:1007F0000123E27893402A0700D5B0E0B3610123DA
:10080000227993406A0700D5A5E0D02212069361B1
:10081000012362799340AA0700D598E0D0221206FE
:10082000936101231900A27991400A002B4200D163
:1008300089E0D0231B065A61D02401202406002120
:1008400001F062F967610120002101F05DF9A76103
:1008500004B01CBC90469946A246F0BDD02632207A
:100860000021360601F050F9B7610120002101F0A6
:100870004BF94B46B3617DE7D02212065361012349
:10088000227993406A0600D48DE7D0221206536184
:10089000012362799340AA0600D48DE7D022120684
:1008A00053610123A2799340EA0600D48DE7D02258
:1008B000120653618CE7617A1E2900D961E7A07A9C
:1008C00080461E2800D95CE7E678B44601266046DB
:1008D000864068B2002844DBD020000686610126ED
:1008E00020798640680652D4D02000068661012611
:1008F00060798640A80646D4D02000068661A67995
:100900000124B440D0263606E8063AD4B461012466
:100910009C402B0731D4D0231B069C6101239340BC
:100920006A0726D4D0221206936101238B40AA07BE
:100930001BD4D02212069361012341461A008A403B
:100940002B4200D075E7D0231B069A6174E7D022B2
:100950001206536165E7D0221206536158E77361AE
:100960004DE7D02000064661B9E7D0221206536158
:10097000E2E7D02212065361D7E7D0231B065C6161
:10098000CCE77461C3E7D02000064661B7E7D0200A
:1009900000064661ABE7C046F0B54646D6464F4630
:1009A000C0B596B001AC060A01906160A260F6B2D3
:1009B0000B0E1E2B03D8237A1E2B00D89BE114208C
:1009C00001F0BAF82200012713AB994603CA03C30A
:1009D000118832201980927800219A702378A578A6
:1009E000984601F091F83B00AB401D00D0231B0658
:1009F0009D61012000219A4601F086F842463B00A5
:100A000093409846534642469A611E2E01D8B740FD
:100A10009F614B460122DB78D02792469A404B4695
:100A20003F06BA6152461B7901209A404B46BA6193
:100A300052465B7900219A404B467A6152469B7937
:100A40009A407A6101F060F8002101207D6101F097
:100A50005BF80520BD6101F06FF8220010AB9946EC
:100A600003CA03C3118832201980927800219A703A
:100A700001F04AF8BD610120002101F045F843462C
:100A8000BB611E2E02D85346B340BB614B460122C8
:100A9000DB78D02792469A404B463F06BA615246D1
:100AA0001B7901209A404B46BA6152465B7900217E
:100AB0009A404B467A6152469B799A407A6101F09E
:100AC00023F8012000217D6101F01EF8782000212B
:100AD000BD6101F019F822000DAB994603CA03C3AA
:100AE000118832201980927800219A7001F00CF858
:100AF000BD610120002101F007F84346BB611E2EB5
:100B000002D85346B340BB614B460122DB78D02765
:100B100092469A404B463F06BA6152461B790120E5
:100B20009A404B46BA6152465B7900219A404B4647
:100B30007A6152469B799A407A6100F0E5FF012084
:100B400000217D6100F0E0FF78200021BD6100F010
:100B5000DBFF22000AAB994603CA03C31188322087
:100B60001980927800219A7000F0CEFFBD610120BB
:100B7000002100F0C9FF4346BB611E2E02D8534638
:100B8000B340BB614B460122DB78D02792469A40A6
:100B90004B463F06BA6152461B7901209A404B46AC
:100BA000BA6152465B7900219A404B467A615246BF
:100BB0009B799A40BA6100F0A7FF002101207D6176
:100BC00000F0A2FF0220BD6100F0B6FF220007ABDB
:100BD000994603CA03C311883220198092780021F4
:100BE0009A7000F091FFBD610120002100F08CFFA0
:100BF0004346BB611E2E02D85346B340BB614B46F1
:100C00000122DB78D02792469A404B463F06BA61D4
:100C100052461B7901209A404B46BA6152465B7995
:100C200000219A404B467A6152469B799A40BA61BC
:100C300000F06AFF012000217D6100F065FF2200C5
:100C4000BD6104AB994603CA03C3118832201980E1
:100C5000927800219A7000F057FFBD6101200021B9
:100C600000F052FF4346BB611E2E40D94B46DA7856
:100C700001231900D02791404A463F0679611900A7
:100C80001279012091404A46B96119005279914088
:100C90004A46B961927900219340BB6100F034FF6C
:100CA00001207D61002100F02FFFBD61022000F0D6
:100CB00043FF66700E2301986168A268FFF72EFD5E
:100CC000062301986168A268FFF728FD01230198B7
:100CD0006168A268FFF722FD1E2E02D9022000F0F3
:100CE0002BFF16B01CBC90469946A246F0BD534659
:100CF000B340BB61BAE7637A1E2B00D95FE6A37AE3
:100D00001E2B00D95BE62D2000F016FF3023616812
:100D1000A2682068FFF702FD052000F00DFF3023D8
:100D2000A26820686168FFF7F9FC7820002100F0D4
:100D3000EBFE302320686168A268FFF7EFFC1E2EEF
:100D400006D8382301986168A268FFF7E7FCB0E78E
:100D5000022000F0F1FEF4E7F0B5DE4657464E46BD
:100D60004546E0B5ABB002F00FFB102000F0E6F90D
:100D7000112000F0E3F9D024802324065B02636293
:100D800080239B026362DE4B00269B4607CBFFF766
:100D9000E5FA5B4607CBFFF7FFFDDA4B04279A46DF
:100DA00018AD53469B5D5A4698462B0003CA03C3B1
:100DB0001188198092789A70AA6828686968FFF784
:100DC00029FBA7610120002100F09EFE80231B016A
:100DD0006361802301225B01A361914600234A469F
:100DE000E818C0788240100080221A41944642469A
:100DF00061460A4200D01AE1A0610133082BEED10E
:100E00000120002100F080FE0136676101200021F1
:100E100000F07AFEA7610D2EC3D1002304931EAB10
:100E2000984621AB994600240123D02500930194D4
:100E30002D065346049A9B5C5A4605931BAB03CA86
:100E400003C311881BA8198092789A70434650C832
:100E500050C39A704246198010685168A82392685E
:100E6000FFF75CFC0024A84B5A461B5D03934B46DE
:100E700003CA03C31188198092789A704B4607CB36
:100E8000FFF7C8FA009E019F04233900AB613000D0
:100E900000F03AFE80231B016B6180235B01AB6194
:100EA0000121002380220096019748460F00C018B8
:100EB000C078039E874010001841064200D0B8E079
:100EC000AF610133082BF0D1009A019B100019008B
:100ED00000F01AFE0098019904231E006B61013492
:100EE00000F012FEAE610A2CBDD15A4609AB03CA0E
:100EF00003C31188198092789A70049B0998803BEB
:100F0000DBB20A990B9A0793FFF708FC00230393BF
:100F100080239B02AB61642000F00EFE8023039AC5
:100F200005991341194013008022403B0691DBB222
:100F30005202002900D17EE06A610FAA11005E46CC
:100F400011CE11C1308824AC0880B07888700F9819
:100F50001099119AFFF7E2FB23005A4603CA03C314
:100F600032881A80B2789A70A26824986168FFF774
:100F700051FA009E019F04233000AB61390000F05C
:100F8000C3FD80231B016B6180235B01AB610120EA
:100F9000002380213122009601970600E718FF7890
:100FA000BE4037000E001E41164200D1A3E06F6123
:100FB0000133082BF1D1009B019C180021001E0079
:100FC000270000F0A1FD042330006B6139001C00F4
:100FD00000F09AFD0CAA13005946AC6111C911C367
:100FE0000888188089789970079B0C980D990E9A3B
:100FF000FFF794FB8024A4026C61642000F09CFD48
:10100000039B01330393082B00D081E7049B01333A
:1010100004930D2B00D00CE780235B02AB61AC6125
:101020002BB03CBC90469946A246AB46F0BD6061F1
:10103000E3E66F6145E7AA6115AA11005E4611CE8D
:1010400011C1308827AC0880B0788870159816993F
:10105000179AFFF763FB23005A4603CA03C332887B
:101060001A80B2789A70A26827986168FFF7D2F95F
:10107000009E019F04233900AB61300000F044FD65
:1010800080231B016B6180235B01AB610121802206
:101090003023009601970F00069EA019C078874064
:1010A0003800170037411F4227D068610698013089
:1010B00006900828EFD1009B019C180021001E001B
:1010C000270000F021FD042330006B6139001C0073
:1010D00000F01AFD12AA13005946AC6111C911C3E0
:1010E0000888188089789970079B12981399149A28
:1010F000FFF714FB7EE7AF615AE7A861D6E7C04669
:10110000E85C0010005D0010F45C0010094A8300E8
:1011100094464022634410B51C68C0006240C0245D
:1011200014408022520113431C60034B9C466044D0
:10113000416010BD04C00140004001400123D022A5
:101140008340120693629361094A830094464022C9
:1011500063441968C0004A40C021114080225201F6
:1011600013431960034B9C4605236044436070475A
:1011700004C0014000400140F8B5EFF3108772B69B
:101180000D4E3368002BFCD0BFF35F8F0725CB08D3
:10119000C01801230D40AB401D000478254007D145
:1011A00023430370BFF35F8F356087F31088F8BD6A
:1011B000100001F08FFAC0462C0100D0F8B5CE46E1
:1011C00047468C4680B5EFF3108972B6214D2C68E6
:1011D000002CFCD0BFF35F8F9A422CD80721012549
:1011E00011408D40D4080419267835421FD00721BC
:1011F0008846063909E045460F001540AF40D4083F
:10120000041926783D00374211D001329342F2D2C0
:1012100001204042BFF35F8F00220E4B1A6089F31A
:10122000108800280FDB0CBC90469946F8BD35436A
:1012300025701000EEE7BFF35F8F00232B6089F36A
:101240001088012040426346002BECD0089801F042
:1012500041FAC0462C0100D0024B18688007C00F2D
:101260007047C04600C006400021044B044ABFF34B
:101270005F8F02C39342FAD17047C046000100D08D
:10128000800100D0044A1078431CDBB2172B00D930
:10129000102313707047C046E003002000B5054BD3
:1012A00083B00100009318221F230348FFF786FF35
:1012B00003B000BD105D0010A40A0020F8B50400C2
:1012C00006200D0001F088FB03000020002B51D008
:1012D0002B4B2C49E3185A1E93418022120494464A
:1012E0005B42294A9B0563441360284A1360180037
:1012F0008A689043FBD1224B8021E3185A42534124
:10130000234A5B0049000620995201F065FB290041
:10131000C00001F013FEC3090BD01E4A93422AD825
:101320007F221040013040089F011A003F1803003F
:1013300001E040270122260080256262A36200238B
:101340002C36AD0135432B60062001F045FB3900FA
:10135000800001F0F3FD6023E26A53406E221A40E0
:1013600080235B0133431A600B4B236310232B60F4
:101370000D3BA364F8BD094F0023094ADBE7C046D3
:101380000080FCBF00C0004000E0004000F00040D2
:101390009C0F0020FEFF000001030000C0FF3F0083
:1013A000FFFF000083680B4810B584466144624427
:1013B000090112019A18591854684B6801209C427F
:1013C00001D802D00020C0B210BD12680B689A424A
:1013D000F9D8F7E7FFFFFF0F0A4B1968EFF310800A
:1013E00072B60A68002AFCD0BFF35F8F1B68BFF398
:1013F0005F8F00221A6080F3108840BF0020002118
:101400007047C046640F0020F8B557464E46454623
:10141000DE46E0B51F000CAB1D780DAB1B78814696
:101420009A46036816009846002D3BD1987B002809
:1014300032D042464546440012682418033C121933
:1014400051780300A973002900D1E9730021050038
:1014500091705170117029E0D31814199D70227881
:10146000002A00D05A705B46237043465D734B469A
:101470003200187D3B0000F01BFD041E07D05346D0
:10148000002B04D14B462900186800F001FF0E9B89
:10149000002B44D028001C703CBC90469946A246C4
:1014A000AB46F8BD2B006C006419033C1D4A944602
:1014B0004A469268634494461B010A9A63449A60C0
:1014C0000B9A1E605F60DA60434600221B681B199E
:1014D0009A705A701A7043465B7B9B46002BC4D0AF
:1014E00043462A00986859465B6898475B464246DF
:1014F0005B005B44033B12680028ADD0D31814197D
:101500005A46A2701A78002A07D11D705A464346DF
:1015100028005A73AB45BFD1A9E76270F5E72800F0
:10152000BAE7C046FFFFFF0FF0B5DE464546574617
:101530004E46724B8200E0B5D55800238DB00B901B
:101540009B4627E0069A079B1100194303D02B699D
:10155000002B00D093E02B68DA7B002A07D05100E3
:101560008A1819688C4649466244033A51704A46C3
:10157000DA73EA684B469446013B63441A780132B9
:101580001A705B462B616B68BFF35F8F5A461A6017
:1015900084F3108800F02AFC6A68EFF3108472B6B6
:1015A0001368002BFCD0BFF35F8F2B689C465B7BDE
:1015B0009946002B5BD0AA68514B90464B441B01C7
:1015C000984443461A685B6816001F00361A8F411C
:1015D000002F6EDD0B9800F06BFC0022002300272B
:1015E0000026089209936B68BFF35F8F5A461A6012
:1015F00084F31088002E76D0534618024B463900EB
:101600001843B0476A6806900791EFF3108472B6EA
:101610001368002BFCD0BFF35F8F079B002B91DA80
:101620002B69002B97D006980799089A099B121AE4
:101630008B410898099906920793079A914203D81B
:1016400007D1069A904204D901225242D31706923A
:1016500007935B46012104934B4603910293019744
:101660000096069A079B2800FFF7CEFE89E7002226
:10167000002300270892099300260020B3E700F01A
:10168000B5FB069A079B12184B41994202D804D128
:10169000904202D901225242D317594604910121A6
:1016A000039149460197029100962800FFF7ACFE8E
:1016B00067E7002F01D1002E8CD10021604600F099
:1016C0003BFD43461A685B680892099343469E684F
:1016D000DF68EB684B44013B1B789A461B021843BA
:1016E000286100207FE7002800D053E70DB03CBC04
:1016F00090469946A246AB46F0BDC0464C0F00202E
:10170000FFFFFF0F10B5124C6368002B04D00A21B5
:10171000104800F059FC10BD23000F4A102120682A
:1017200000F0ECFC032000F055FB032000F02CFC43
:101730000A49032000F076FBFFF7A4FD084B9C4606
:10174000032360442375074B80006060DC60DEE7A4
:10175000E4030020640F0020A513001029150010D9
:10176000400000344C0F002000487047E403002084
:10177000F0B54546DE4657464E46E0B585B0009288
:10178000019310AB1B7805009B4600239A469846B0
:101790006A68EFF3108972B61368002BFCD0BFF3B0
:1017A0005F8F2E68B47B002C50D067003F193368E0
:1017B000033FDB195A78B273002A00D1F273424614
:1017C0009A705A701A70AA68534B94460099019AFD
:1017D000E3181B01634419605A600E9A9A600F9ACD
:1017E000DA6042463368DB199A705A701A70737B5C
:1017F0000393002B40D01900736822009C46B06808
:10180000E047039932688C464B006344033B002851
:101810002BD0D719D318B9701A78002A00D073E0EA
:101820001C70039B73739C4227D0EB681B19013B10
:1018300018786B68BFF35F8F42461A6089F310888F
:101840005346002B26D10002204307E06B68BFF30C
:101850005F8F1C6089F310880120404205B03CBCBA
:1018600090469946A246AB46F0BDD318D7199C7056
:101870003A78002A44D139707473287D009A019B0C
:1018800000F016FB82460028CFD02100286800F027
:10189000FFFCCAE75B46002B30D00E9B0F9900205F
:1018A000984703000B4329D006000F1E15DA009855
:1018B000019902000B00921BBB41994202D808D14A
:1018C000904206D901235B42DC1700930194DA466B
:1018D0005EE700920193DA465AE700F087FA36187D
:1018E0004F4100960197B942ECD8F0D1B042EED901
:1018F00001235B42DC1700930194E8E70020ADE789
:101900005A70039B3B70B7E77A701C70039B73732C
:101910009C4200D089E7B0E7FFFFFF0FF0B55746C4
:101920004E464546DE460400E0B50D0006267642EA
:10193000F71736196F4185B08F4200D987E000D183
:1019400082E000F053FA32003B00121A8B41002B68
:1019500000DC87E0674B99465A68EFF3108B72B64C
:101960001368002BFCD0BFF35F8F4B461B68984673
:101970009B7B9A46002B7BD05B0053444246033B43
:101980009C46414612680093624453788B73002B47
:1019900000D1CB730023494693705370137089684C
:1019A000554A8C46524455491201624416605760AC
:1019B0009160D360009942468C46126862449370ED
:1019C0005370137043465B7B0393002B00D16FE091
:1019D00019004046434652465B6880689847039B1F
:1019E0009C465A006244033A002854D0009940466D
:1019F0008C46036803999A186344997011780029FA
:101A000000D05970534613704246039B53739A4556
:101A100051D04B465B68BFF35F8F00221A608BF397
:101A20001088BC46B0460094019500266546344FA8
:101A3000344A7B6A9D424CD8B96A414501D29D42E5
:101A400047D0009C019D1BE0864200D879E7002624
:101A5000002700F0CBF932003B00121A8B41002B1B
:101A600000DD77E7002B0BD1002A00D072E707E0FA
:101A70004B465B68BFF35F8F52461A608BF310884A
:101A80002000290000F0BEF905B03CBC9046994604
:101A9000A246AB46F0BD43461968009B8A18CB1896
:101AA000514691701978002900D05170039A1A702C
:101AB000434652465A734B463200187D3B0000F0B5
:101AC000F7F90028A5D04B465146186800F0E0FB16
:101AD0009FE71168EFF3108072B60B68002BFCD003
:101AE000BFF35F8F1368BFF35F8F1E6080F31088B2
:101AF00020BF9EE7E4030020FFFFFF0FD913001073
:101B000000400540640F002070B504000D0000F097
:101B10006DF902000B0020002900801859418B420A
:101B200005D901204042C117FFF7F8FE70BD8B4276
:101B3000FAD18242F5D8F7E770B5060000F056F901
:101B4000FA2204000D00920000233000002101F071
:101B500057FA001969418D4205D901204042C11749
:101B6000FFF7DCFE70BD8D42FAD18442F5D8F7E76D
:101B7000F8B557464E46DE464546664CE0B58146CA
:101B80000F006268EFF3108872B61368002BFCD068
:101B9000BFF35F8F2668B57B002D00D19FE06B00FF
:101BA0005B19033B9A46336853441A005B78B3735E
:101BB000002B00D1F3730023937053701370A1684E
:101BC000554A8C464946AA1812016244116053498D
:101BD000D3605760916032685244937053701370B1
:101BE000737B9B46002B6DD02A001900B068736888
:101BF00098475B465A005A44033A002857D0594642
:101C000033689A18534499701178002900D059709C
:101C10005B46157073735D4555D00026E3686268B6
:101C20005B19013B1B78BFF35F8F0021116088F3C4
:101C30001088002E59D11B021D4320BF6268EFF3AC
:101C4000108872B61368002BFCD0BFF35F8FFF23A0
:101C50002068E9B2427B2B408A4250D05A0092461B
:101C600002689A44944652466244033A9278002AA3
:101C700045D123699D4200D122616368BFF35F8F24
:101C800000221A6088F31088254A536A9F4207D8B9
:101C9000926A01264A4503D2FF1A7B1E9F41FEB27B
:101CA00030003CBC90469946A246AB46F8BD534630
:101CB00031688A18CB1895701978002900D05170B6
:101CC0005A461A707573207D4A463B0000F0F0F8C2
:101CD000061EA2D02900206800F0DAFA9EE76368A9
:101CE000BFF35F8F1D6088F310880D4A0026536A8A
:101CF0009F42D5D8926A01364A45CDD3D0E7E268F3
:101D00002D0A94466344013B1B78AB42B5D100F0E9
:101D1000BFFAB2E7E4030020FFFFFF0FD913001062
:101D200000400540F0B5C64600B5EFF305833F22FD
:101D3000134018001038EFF3108772B61F4D2A6851
:101D4000002AFCD0BFF35F8F01221100814088463A
:101D500044461B494C631B4C2678A4463400C440BF
:101D6000224007D1BFF35F8F2A6087F3108804BC3D
:101D70009046F0BD4C6A1449820051588C420FD3F2
:101D8000124BD25843469E4363461E70BFF35F8F8B
:101D900000232B6087F31088002AE8D09047E6E7FD
:101DA0000B4A9B00944663441A681A60BFF35F8F26
:101DB00000232B6087F31088D9E7C046280100D0A4
:101DC000004005409B0F0020700F00209409002068
:101DD000D03F054010B50100024A0348FFF7CCF997
:101DE00010BDC0462C5D0010980F0020044A516AB7
:101DF00000E01900906A536A9942FAD17047C046D0
:101E000000400540064A536A9942FCD807D1044B6A
:101E100002E05A6A914202D19A6A8242F9D370472B
:101E20000040054070B504000D00EFF3108672B657
:101E30001A4A1368002BFCD0BFF35F8F002D1BD014
:101E4000200000F0E9FD164988420AD0200000F089
:101E5000EBFD0121200000F0C5FD0123A340114A44
:101E60001360114BA400E550BFF35F8F00220B4BB2
:101E70001A6086F3108870BD0B4BA200D55001226A
:101E8000A2400A4920000B7893430B70044900F0EC
:101E9000F5FD0021200000F0A5FDE5E7280100D0B8
:101EA000251D001038600540940900209B0F00207C
:101EB000F0B5D6464F4646462E4CC0B5656A00E0A2
:101EC0000D00A66A616AA942FAD1AB4248D9EFF384
:101ED000108972B6284C21680029FCD0BFF35F8FAF
:101EE000264901268C46097886400F0088466146BF
:101EF0003743FFB20F70041D1E49A400204D4E63EE
:101F00006250840063510D6A002435421BD04D6A33
:101F100000E025008C6AA2464C6AAC42F9D1AB4283
:101F200024D801D1524521D8474521D0114B154A1B
:101F30001E625E631F2318401E3B8340136063468E
:101F4000424601241A70BFF35F8F00220A4B1A60C9
:101F500089F3108820001CBC90469946A246F0BD2B
:101F6000AB4201D1B242B2D80124F3E70024EAE740
:101F70000124E8E700400540280100D09B0F002025
:101F8000700F002080E200E010B5EFF3108472B60D
:101F90000A490B68002BFCD0BFF35F8F01238340FD
:101FA000074A0848136202789A430270BFF35F8FB2
:101FB00000230B6084F3108810BDC046280100D0B8
:101FC000004005409B0F0020024B9C466144890065
:101FD000016070474000003410B50400FFF752F96B
:101FE00001002000FFF7F0FFFF23A380BFF35F8F06
:101FF00010BDC04610B50400FFF744F901002000F1
:10200000FFF7E2FF01235B42A380BFF35F8F10BDA8
:1020100010B504000120FFF741F9044B9C466044D1
:1020200080002060BFF35F8F10BDC04640000034C9
:10203000F8B54746CE4680B54C0003686418033CAB
:102040001A19567807000D00002E04D128000CBC88
:1020500090469946F8BD7100891903398846434472
:1020600059788946002159705170002D11D07B6834
:1020700032002900806898473B68002832D01A193E
:1020800043449D701178002900D059701670A04605
:1020900000E035004B46002BD8D049463800FFF70A
:1020A000C7FF041ED2D002007B682900B868984799
:1020B00063001B19033B3A68002809D1D318424436
:1020C00094701978002900D051701D702500BDE76B
:1020D0004146D31851189D700A78002A00D05A70D2
:1020E0000C70B3E742461C199A18A6701378002B9F
:1020F00000D0637015703500CCE7C04610B5836022
:102100000023CCB243730133047342608373C473FE
:102110000068012C06D9421C0133DBB21370033274
:102120009C42F9D8FF2319404B005918002340184E
:102130000338437010BDC046F0B54E46574645467D
:10214000DE46E0B5467B03687400A419033C1A1907
:10215000177883B005008946002F1ED1002911D0C1
:10216000C07B00282AD041000918591803394E7045
:10217000EE73002F06D07900C91903398846002173
:10218000434499700023300053706F7303B03CBC1C
:1021900090469946A246AB46F0BD7900C91903396D
:1021A0008846591848788246002809D149460029AE
:1021B000E5D0E87B0028D6D1EE73DCE7EE73E1E7EB
:1021C00042005244033A93465B445A7801920022FB
:1021D0005A704A706B6802003900A86898472B68EB
:1021E000002830D1414650465A4659189A188870EE
:1021F0001078002800D048701770D8465746019ACA
:10220000002A2DD011002800FFF712FF8246002877
:1022100025D0020039006B68A868984753465900DA
:10222000514403392B6800281CD04246591898188D
:102230008F70027894461A196446002C00D04C70B6
:1022400051460170B2E75946424659189A188F70A4
:102250001078002800D0487051461170CFE72B68E5
:102260001A19A3E75A18984493465046424690706C
:102270005A461278944660461A19002802D0404601
:102280006446447058468846077057468EE7C046F5
:10229000F0B54546DE4657464E46E0B50C0083B0E5
:1022A00005000023002927D06600477B0168361906
:1022B000033E8819A74233D08278002A1CD05300ED
:1022C0009B18033BCB181A78A2421FD142781A7090
:1022D00000230278837043709146002A33D1EA7B51
:1022E000002A66D053009B18C91803394C70EC7350
:1022F0000023437001236F73180003B03CBC904669
:102300009946A246AB46F0BD002AE1D053009B1887
:10231000033BCB185A78A242F6D142785A70D7E7DD
:1023200002780192002A46D1EA7B002A3FD053006E
:102330009B18C91803394F70EF7300234370019B3A
:102340006B730123D8E752004A44033A90468A1837
:102350005778002F42D1EB7B002B00D029E14F466C
:102360006E7BEC73002393704370002EC2D03A0052
:102370006B683100A868984773009B19033B2A6873
:10238000002808D0D31842449670197800290CD13F
:102390001F703700AEE74146D31851189F700A7876
:1023A000002A00D05A700E70A4E75170F0E7EF7366
:1023B000C3E7EC739CE71400A44652006244033A5E
:1023C00090468A185478A146002C58D1EB7B002BFC
:1023D00000D0F7E0EF7300239370AEE77800C019E8
:1023E00003388246514448784B7053706B6883467B
:1023F0003A004946A86898472B68002800D1A2E017
:1024000042469818524699184A468A70019002002E
:102410000078002801D0019A487017704F465A463C
:10242000002A28D059462800FFF702FE81460028DE
:1024300020D002006B683900A86898474B465B00C3
:102440004B44033B9C4600286DD042462B689818AD
:10245000624699188F7001900078002800D083E0C0
:102460004A4601980270E97B98196E7B002951D188
:10247000019A76E72B6842469A180192F3E76000CA
:10248000484403388246514448784B705370614643
:10249000220083466B68A86864469847296800282C
:1024A00078D0524643468A18CB1894701878002882
:1024B00000D050704A46C2461A705B46002B50D07E
:1024C00059462800FFF7B4FD8046002848D0019CFB
:1024D000020021006B68A868984743465A004244AE
:1024E000D31E2968002844D05246CB188A189C7005
:1024F0001078002800D0587043461370EB7B881981
:10250000002B00D166E75E00F318C91803394F703D
:10251000EF7360E74A00944661445B18033B5C70CC
:10252000019AEC731EE729684846CA184346CB183F
:1025300098701078804688194646002E00D05E704C
:102540001770E04607E74146524659189A188F70AF
:102550001078002800D048704946D04611705EE7D8
:1025600029685346CA18C9E74A46487001990A7053
:1025700079E7CA1853464046CB18987010788446BD
:1025800064468819002C00D05C70019B1370434690
:1025900001931BE75346CA1843464846CB18987028
:1025A0001078002800D05870019B13704B4601939F
:1025B00083E703267343C91803394C706E7BEC73B1
:1025C0004F46CFE603267343C91803394F7001E71E
:1025D000304B314A70B51A60304A314B31491A607C
:1025E00010008B689843FBD12F4C304DAC4209D280
:1025F0000322231D0335ED1A9543ED1808CC9847A7
:10260000AC42FBD100F084F8294A254B1A60254AD8
:102610009368DB018033FBD14022264B264C274DAB
:102620009A675A671A67DA66AC4215D223000735F3
:102630000833ED1A393A9543ED1804E00834FFF7F2
:10264000D9FCAC4208D063792000002BF6D10834C5
:10265000FFF7C2FCAC42F6D1194D1A4CC022A1685A
:10266000280000F03FFDA560FEF7FEFD00F03EFBF8
:10267000FFF748F8144D154CA54209D203222B1D33
:102680000334E41A9443E41808CD9847A542FBD1DB
:1026900070BDC04600E00040BFCDFBFEFE7F3C00A9
:1026A00000F0004000C00040DC040020EC040020EA
:1026B000FFFFFF0100F00140D4040020DC040020F3
:1026C0000000002000ED00E0EC040020F4040020F5
:1026D00000BEFDE70FB400B5084883B000F0A6FDCA
:1026E000049B002B07D005A91800019100F0D8FB2E
:1026F000034800F09BFD00BEFDE7C0465C5D001096
:102700006C5D001010B50148FFF7E4FF505D00104C
:1027100030B50C2083B000F057FBFEF79DFD00287C
:102720000ED0964B964A1A605A609A60DA601A6127
:102730005A619A61DA611A62924A5A6203B030BDF4
:10274000914CA06700F092FB0122904B1A60636CE1
:10275000012BFCD103228E4B1A608B4A936B012B09
:10276000FCD1022405338B4A01218B48009400F0F0
:10277000D9FA0523894A00940121894800F0D2FA48
:10278000884B5A68FF2A02D8802252005A60802261
:102790007A4C7F4B21691201824D1A60002900D0CA
:1027A000E5E0E0217F4B02201A68114080225201AF
:1027B0002A43116019684840032101401160042137
:1027C0009A681142FCD08022802192012A4309019B
:1027D0001160802252005A60734B2361734B596819
:1027E000FF2900D8C1E00322684B70481A6001211C
:1027F00003009A681142FCD0E0251A681540802237
:102800005201024315601B684B40032119401160BF
:102810000221664A93681942FCD0802380219B01E3
:102820000343090119608021614B490051606361D4
:10283000604B5A68FF2A00D8596080225E4BE169DC
:1028400012015C4D1A60002905D0606900F076FB2A
:1028500001300138FDD1E02256490B681A4080232F
:102860005B012B431A60802380229B012B431201C2
:102870001A608022424B52004A60E3614F4B596814
:10288000FF2900D85A6080224D4B216A12014B4D1E
:102890001A60002905D0606900F050FB0130013852
:1028A000FDD1E02245490B681A4080235B012B4390
:1028B0001A60802380229B012B4312011A6080231F
:1028C0005B004B602E4B3F4A23623F4B596891425D
:1028D00001D801325A6080223C4B616A12013A4DA4
:1028E0001A60002905D0606900F028FB013001382A
:1028F000FDD1E02234490B681A4080235B012B4351
:102900001A60802380229B012B4312011A608023CE
:10291000DB024B601B4B63622D4B5A68FF2A02D8C7
:10292000802252005A6080222A4BA1691201284D50
:102930001A60002905D0606900F000FB0130013801
:10294000FDD1E02222490B681A4080235B012B4312
:102950001A60802380229B012B4312011A6080237E
:102960005B004B60124BA361E8E65A603BE760698D
:1029700000F0E4FA01300138FDD112E7A80A002086
:10298000006CDC021BB70000008000403CB000403F
:1029900030B00040002F68590080024000389C1C75
:1029A00000C0024030800040001BB7003C80004067
:1029B000405973075480004054B00040608000408C
:1029C00060B00040FFFF03006C8000406CB000402E
:1029D0004880004048B00040014B8000C05870471C
:1029E000A80A002001238340002902D1034A136072
:1029F0007047034A1360034A1360F9E780E100E07F
:102A000080E200E000E100E001238340014A13601E
:102A10007047C04600E200E0024B10309B68800027
:102A2000C058704700ED00E070B50D00EFF3108660
:102A300072B60F4A1368002BFCD0BFF35F8F0D4BAB
:102A400010309B6884001B590B4A934203D09D426F
:102A500001D0FFF757FE074B9B681D51BFF35F8FF7
:102A6000BFF35F8F0022024B1A6086F3108870BD9F
:102A7000240100D000ED00E0CD010010F0B5454686
:102A8000DE4657464E46E0B50D0083B0EFF3108AA0
:102A900072B65C4A1368002BFCD0BFF35F8F102224
:102AA000914681444A46584B96009B689C59574B27
:102AB00098469C4205D0AC424FD0554FE31B2F2B7C
:102AC00012D9514B9B689C51BFF35F8FBFF35F8F4F
:102AD00000224C4B1A608AF3108803B03CBC90462D
:102AE0009946A246AB46F0BD012383409B465A4619
:102AF000484B1B681A4000925A46474B1A60BFF376
:102B00005F8FFDF7B0FB0190002803D0814501D015
:102B1000FFF7F8FD0123220006209A431300DB1B78
:102B20005B4144495943090D93688C4610569D42B8
:102B30000AD151E043001B1806209B00FB1899683E
:102B40001856A94211D01A000028F3DA009B002B76
:102B500005D15A46304B1A60B3E71C00B1E75A461C
:102B60002E4B1A602B4B1A60ABE7002825DB420086
:102B7000111889007D188846A9689960E979D9718A
:102B8000062169569971A9797F2913D8AD88F91A58
:102B90006D052D1545444919E0250905490D2D02FE
:102BA0002943998012181E4B9200BF181A7818708A
:102BB000BA71CBE7BD210902F3E70199002913D1CE
:102BC000002A0FD0FF20907116489080144A107888
:102BD000987163461370B9E713000028C7DA019AA9
:102BE000002A01D14446F1E70F4A1049D21A083AA7
:102BF0005002400D014399800D4952080A43DA8082
:102C0000A4E7C046240100D000ED00E0CD01001093
:102C10000C04002000E100E080E100E080E200E040
:102C2000990F002000BDFFFF4604002000F0FFFFC9
:102C300000F8FFFFAAAA0000F8B50125040005432B
:102C4000FDF711FBEFF3108672B6214A1368002BD3
:102C5000FCD0BFF35F8F1F4A2100891A4941224BE4
:102C60004B431B0D1C4980008F685BB23F58AF423D
:102C70001CD006215156994226D012215156994214
:102C800024D01E215156994214D02A215156032096
:102C9000994210D0114A11781370A171BFF35F8F60
:102CA00000220B4B1A6086F31088F8BD8A680C4925
:102CB0001150EFE702204100091889005218FF2146
:102CC000917108499180E5E70020F4E70120F2E7DF
:102CD000240100D00C04002000ED00E0990F00203A
:102CE000CD01001000BDFFFFAAAA0000F0B5002230
:102CF0000324FF27802620003D00094B11009C463D
:102D00001040C0008540A14361440B680132AB43D1
:102D1000350085402B430B60202AECD1F0BDC04626
:102D200000E400E0F8B504000C201E0017000D00C0
:102D300000F004F94201121A9101891AC900091818
:102D40008901380000F0FAF8069B36041B031E4385
:102D50002368002B21DB184BE21853425A41802391
:102D60005B019C4652421A40144B62441A60144B59
:102D70001A60144B170099688F43FBD1C023221DA2
:102D80009B01134321222560A0601A602268002A5B
:102D9000FCDA0822E6601A60F8BD3F23226813407F
:102DA000AB42D8D1A3681B051B0D8342D3D1E36886
:102DB000002ED0D1F0E7C0460040FDBF00E000404B
:102DC00000F0004000C0004080239B001843014BEE
:102DD000D86270470080054010B58024194BE40587
:102DE0001C60002827D00123174C1843174BDC61C7
:102DF000174C44401C62596298628021114BC905EE
:102E00001960144814490860E021C9041960002AB7
:102E100014D053019B1A9B009A18104B12019A422E
:102E20000DD90F4A13601A00084B5A6080220D4BCF
:102E3000D2051A6010BD054BD861DEE70A4A084B7F
:102E40001A60F1E700B00540D3C007B0008005402C
:102E50002D3FF84FFCFF010008200140FFFFFF005D
:102E6000440F002000A00540A0860100AA23064AC6
:102E70001B0113602F230549D360054B196053686C
:102E8000002BFCDA7047C0460040024000B0FA0058
:102E90000060024010B5002801D000F06FF910BDAD
:102EA00010B5094A84B01468002C09D001220091A1
:102EB0000300524203A90548A047012004B010BDF9
:102EC00000F0B4F90020F9E7400F0020952E001023
:102ED00001480421014B184760040020012F001015
:102EE000142310B50100188804331B88984710BDBF
:102EF000162310B50100188802331B88984710BDAF
:102F0000F0B5C64600B5002916D0142304000125EB
:102F100098461827890046184346216818883B8838
:102F2000984701C4431E984140420540A642F3D150
:102F3000280004BC9046F0BD0125F9E7114A936FC3
:102F40009B0813D210665166002905D0FFE7FFE702
:102F5000FFE7516F106F704704B5002801D00020C3
:102F6000C04302F0A1FE002104BDC046F0B5146EBE
:102F7000556E576F166FFFF7E5FF14665566576776
:102F80001667F0BD000000D0132370B51C78012C2B
:102F90000CD015DD0C48FFF7ABFF0C4D0100802273
:102FA000280000F09FF8022C0BD070BD074D084A96
:102FB00029002B00803104C38B42FCD1AA64F4E7C2
:102FC000024D034AAA64F0E753440000A00F00201A
:102FD000D52F001007B5604601880A0A0230DF2AA3
:102FE000FAD1C9B2820804D3028840880004104391
:102FF00000E00068014A5050039007BDA00F002078
:1030000051434343C9188C46110C83B24B4310B44F
:10301000040C614392B280B2504362431C041B0C07
:10302000001910BC59411304120CC01851416144DD
:1030300070470000132310B51C781348FFF758FFA2
:10304000012C0BD004DD01008022104800F04AF86A
:103050000F48FFF745FF0F4B186010BD0B4C0100E8
:103060005422200000F03EF80B4B6365A365E36536
:1030700023666366A366E36623676367A367E36704
:103080002362E361E4E7C04653460000A01000203D
:103090004C330000A01100209D30001007B56046A1
:1030A00001880A0A0230DF2AFAD1C9B2820804D3A1
:1030B000028840880004104300E00068014A505034
:1030C000039007BDA010002001480421014B1847C0
:1030D00070040020012F0010014B1B6818470000EE
:1030E00070040020014B5B6818470000700400204A
:1030F000F0B5C646070000B50C00151E30DD0A7895
:10310000037C00200A2A2ED00121012D1BD01A4B4E
:10311000984602E03100AE4215D04B1EE25C635C83
:103120004E1C0A2BF6D10D2AF4D03B68884203DAF4
:10313000091A201898473B680221404698473000FA
:103140003100AE42E9D1854203DD291A3B682018DF
:1031500098476419013C23780D3B5A4253413B7414
:1031600004BC9046F0BD002BCED1034802213B6841
:1031700098470120C8E7C046D85D0010F0B5CE469C
:10318000474680B583B06B46DE1CD02330701B06EB
:103190001C68234B804601A91800994602F08CFD5B
:1031A000071E2ED1019B64B29C4225D0484602F0F6
:1031B00093FD1C4B01271C68002C26D01A4D02E001
:1031C000E468002C10D02368002BF9D02A68002A6C
:1031D00001D0A242F4D1627C002A1AD10121300030
:1031E0009847E468002CEED1002F0ED1404603B082
:1031F0000CBC90469946F0BD0A4B1C68002CDDD1F2
:10320000F4E7084B1C68002CD8D1484602F044FD76
:10321000ECE7012231002000FFF76AFFD0E7C0464B
:10322000D4040020380B00203C0B0020F0B5DE4613
:10323000454657464E46E0B583B0804602F0F0FC66
:10324000D02301AD1B06070029003C481C6802F092
:1032500033FD834600284ED1019B64B29C4244D08A
:10326000364802F039FD364B9A461C6801239B46CE
:10327000002C45D00A2399463B00324E47469846DB
:1032800002E0E468002C19D02368002BF9D03268E2
:10329000002A01D0A242F4D1627C002A40D14146EA
:1032A000380098474B462B70627C2368002A2BD14C
:1032B000012128009847E468002CE5D15B46474689
:1032C000002B1DD153461C68002C06D06368002BD0
:1032D0002CD09847E468002CF8D1380003B03CBCEF
:1032E00090469946A246AB46F0BD154B1C689A46DF
:1032F000002CBFD1F1E7124B1C689A46002CB9D1C3
:103300000E4802F0C9FCDDE7227C002A12D102211E
:103310000D4898472B780D3B5A4253412374B0E730
:10332000424639002000FFF7E3FEBBE7E468002CCB
:10333000CCD1D2E7012128009847EBE7D404002044
:10334000380B00203C0B0020D85D00100D4B1A6894
:10335000002A12D0824203D109E0984207D01A0015
:10336000D368002BF9D1002900D0D0607047002924
:10337000FCD1C368D360C160F8E70029F6D01860BB
:10338000F4E7C046380B002010B500F047F800F015
:103390009DF910BDF0B5002915DD0E4B0D271A68FB
:1033A0000D4B4118D3185C4263410C4C5B001E5F0F
:1033B00020240578AE4207D093691C42FCD101302D
:1033C00015608842F5D1F0BD93691C42FCD11760AD
:1033D000F2E7C046800F00200080FCBF9C0F002059
:1033E00030B5002915DD0C4B1A689369DB0610D443
:1033F00000251024013593691C42FCD11368037029
:10340000A94204D0936901301C42F3D0290008007E
:1034100030BD03204042FBE7800F0020E12110B5C2
:103420000B4B0C481B780C4B49021B780B4B18605C
:10343000FDF744FF02210020FDF768FE0221012074
:10344000FDF764FE01210648FFF780FF10BDC0466E
:103450006C6000100040034070600010800F00207E
:10346000800400207047C0460022014B1A7070474C
:103470009A0F0020012070474B790020FF2B00D0CD
:1034800070478B79002BFBD1CB79012BF8D1082A1F
:10349000F6D98A78014B09301A70F1E79A0F0020AB
:1034A00070B5002915D115495379107909781B0297
:1034B00003430020994200D070BD5378012B0AD0FD
:1034C000022BF9D1002064220021FFF785FC0120A6
:1034D000F2E70120F0E7D478917824020C4305004C
:1034E000E20502D5620A93401D000548FFF7F8FC8B
:1034F0007F210300214028009847C0469A0F0020F2
:103500005542000001230370004870471C5E001004
:103510004A780B7812021A438B7810B51B041A43B1
:10352000CB781B0613439622D200934200D010BDE5
:103530000348FFF7D5FC0021030008009847C04668
:103540005542000070B5184C82B005000E002000F6
:1035500001A902F0B1FB002808D1D0231B061B688B
:10356000019A9A421CD0200002F0B6FB002001F024
:103570001BFD002807D103256D42200002F08CFBC3
:10358000280002B070BD002001F026FD0028F2D016
:1035900029003200002001F02DFD051EEBD0ECE7E4
:1035A00003256D42ECE7C046680F002010B51F20D0
:1035B000FFF72AFAFA200021800010BD10B5064C52
:1035C0000021200002F078FB002804D000F084FDE8
:1035D000200002F061FB10BD680F0020F0B54646E8
:1035E0004F46D646C0B5364F82B080460E003800F2
:1035F00001A902F061FB00280ED1D0231B061B6835
:10360000019A9A4205D102B01CBC90469946A24646
:10361000F0BD380002F060FB002001F0C5FC00287E
:1036200032D00024002E34DD264B99469A4612E013
:10363000002843D100F050FD002001F05BFD002088
:1036400001F0B2FC002824D0002001F08FFD0028FA
:1036500023D0A6421DDD0020351B01F087FD8542E9
:10366000E6DC43462A001919002001F0FBFC0500A6
:1036700000F032FD002001F03DFDFEF7B7FB4B46A8
:10368000641918605960E4E7002000210D4B1860B0
:103690005960380002F000FBB5E7FEF7A7FB534680
:1036A0000D001A685B6800218446074812184B41D8
:1036B0009D42EED8CDD19445CBD9EAE70500D0E7BD
:1036C000680F0020F805002020A1070010B51D4B51
:1036D00084B01B7801F060FF1B491F20FFF7A4F99D
:1036E00001211F20FFF77EF91848FEF775FCFEF751
:1036F0003BF80400FEF77AFBFA220023920012182E
:103700004B41994218D901225242D317012102910B
:10371000002101910E4920000091FEF729F80400D4
:10372000631E9C41E4B2002803D001210948FFF741
:103730000DFE200004B010BD9942E7D19042E2D8BE
:10374000E4E7C04674600010BD350010680F00202B
:10375000AD3500109404002000487047D45E00107E
:1037600000487047805E001010B5040016480378CA
:10377000002B1FD0002C06D1144B15484380063B6C
:10378000FF3B038010BD052C1BD8124BA400E25850
:103790000F48012305E05C00013301530132142B73
:1037A0000CD011780029F6D1C0225B00920013439F
:1037B0009BB2E6E7112102F02FF9DBE7CA239B0059
:1037C000DFE70020DEE7C046840F00200904000088
:1037D000100B0020E85E0010F0B54546DE46574667
:1037E0004E4698238024E0B5464A6402D35885B0FB
:1037F0009846234232D0012123200022424B195403
:10380000D9702F315A541A7440490132002001F006
:1038100029F980223E4B92021A653E4B03934346A0
:10382000DB0621D4802342469B011A4208D01C4368
:10383000344B1B6DDB035AD58022354B52021A657F
:10384000802342465B011A4238D1444555D105B028
:103850003CBC90469946A246AB46F0BD102303936C
:1038600043460024DB06DDD5264B9F6D002F23D079
:103870009946274B002601259B4603E06D00013643
:10388000202E19D03D42F9D04B46DB6D5B4601221C
:103890009D6573085C001C4B92469C46B243A4187D
:1038A00064016444200000F053FA002813D1AF43B0
:1038B00001366D00002FE3D1039CB3E70021114ACC
:1038C0000020116001221C4301F0A0F88022104B5F
:1038D00012031A65B9E75346A28AA1780020009323
:1038E000002301F0E7F8200000F0C0F9DFE7012233
:1038F0000221002001F016F89EE74146064861408B
:10390000FEF7E8FE00001150400B002000001050B0
:103910000030115010000100285F001010B5012187
:103920000520FFF75FF810BD01222321002310B509
:1039300006484254C2702F32835403740022203050
:103940000133002100F094FA10BDC046400B002066
:103950008022024B5202DA647047C04600201150A8
:1039600070B5050000F05AF91A490520FFF75CF818
:103970008022194CD20000212000FFF7ADFB174B2D
:10398000174A40201A60002301222126154962703F
:10399000E270A083A1600B60A0870238A355235476
:1039A000114912486036FF366360E1602270668418
:1039B000A062036063622033E2540D4BE1621A643B
:1039C00080229205DA6490220A4928009950FFF774
:1039D000BFFF70BDD9370010400B0020480F0020FA
:1039E00080011050840010500001105080001050D1
:1039F00000001150103001000B785B0602D14B78AB
:103A0000052B09D0012123200022054BD970195420
:103A10002F311A745A5470478A78024B1A60F1E7B2
:103A2000400B002000001150F8B54746CE4680B547
:103A300007208B784A799C46CD780B791040AD07EA
:103A40000002AD0F1843EBB2624699467F236746EA
:103A50001340D40959003B4E0A195201B21897700D
:103A60000127BC466746674057705F425F41D77089
:103A70004A46012A37D0402838D80A195201B218CC
:103A800090839577DA00012C1CD02F4D0027AC468F
:103A90009D0162447519AA601760002B1CD0DA00E2
:103AA0002A4B9C460B1962446A605B01F25C002A57
:103AB0002AD001220B195B01F25401200CBC904664
:103AC0009946F8BD224D0027AC469D016244751908
:103AD000AA621760002B0DD100226301F3185A600F
:103AE0001C4ADA60E5E71C4A9042C6D901001B482F
:103AF000FEF7F0FD1A4ADB00944663446B620B1933
:103B00005B01F25C002AD4D1164DF3182A68DA6002
:103B1000031C402800D940233F209BB2D318034206
:103B200001D0834340332B600D4B5340A02212063B
:103B30001A434B469F060B195B01F3185B6817434A
:103B40001F60B6E7400B00208400105004001050A6
:103B50008000105000011050FF030000005F0010B3
:103B600000001050480F00207F2010B514000840BE
:103B70004000C9094018054940011A0040180123B6
:103B8000210000F075F9012010BDC046400B002057
:103B90007F2270B514000C40CD09640060190B4EF3
:103BA0004001301883781A4204D17D3ADB09D31AD8
:103BB000074A936680220749120100F05FF801234B
:103BC000641964013419237470BDC046400B002091
:103BD00000201150FFF7FFFF7F2270B514000C404A
:103BE000CD09640060190A4E4001301883781A42EA
:103BF00004D17D3ADB09D31A064A936600220649AE
:103C000000F03CF80023641964013419237470BD7A
:103C1000400B002000301150FFF7FFFF80220E4BB9
:103C2000520410B51A600D4B0D491A6010008B68D4
:103C30009843FBD10B4C9C2200212000FFF74CFA4B
:103C40008022002152010848FFF746FA09236367E2
:103C50000333A36710BDC04600E0004000F0004001
:103C600000C00040000011500000105000230374F9
:103C7000437443828382C3828361704710B5836833
:103C8000002901D01C682140002A11D08024E400C2
:103C9000114322420CD01A6822420BD10A4A0A4030
:103CA0001A60FFE7FFE7FFE7FFE7FFE7FFE783684B
:103CB000196010BD7F2281780448CB091140044A65
:103CC0009B009A58FEF706FDFFFBFFFF3C5F0010CC
:103CD000A804002070B543780400C58A002B1BD0CF
:103CE0008022D2002A43E378002B02D08021890170
:103CF0000A4301214B40A168E3700B685B0517D4B0
:103D0000104B13400B60FFE7FFE7FFE7FFE7FFE71C
:103D1000FFE7A3681A6070BD8369818A9C462A0008
:103D20006144C068FFF7DEF9842212022A43DAE711
:103D30007F22A1780448CB091140044A9B009A587D
:103D4000FEF7C8FCFFFBFFFF3C5F0010A80400204B
:103D5000F8B5467C0400002E00D16AE083684778FD
:103D60001D68818AAD05AD0D002F42D16918828B87
:103D700089B28182131C3F2A32D9608A9BB2421ACF
:103D8000944692B29A4225D863469DB2E382884215
:103D900056D31DD0002F41D08022D2002A43E37891
:103DA000002B02D0802189010A4301214B40A168E8
:103DB000E3700B685B0546D4284B13400B60FFE7AC
:103DC000FFE7FFE7FFE7FFE7FFE70026A3681A60CA
:103DD0003000F8BD9C46D7E7A28B131C3F2ACCD8F5
:103DE0004023608A9BB2421A944692B29A42CBD93F
:103DF000F0E783692A005818E168FFF773F9A18A90
:103E00006778691889B2A182002FE5D0E38AAB42B6
:103E1000E2D900236182E3823E00D9E7A3692A0048
:103E20009C46E0686144FFF75DF9842212022A4350
:103E3000B5E77F2381780A4A19400A48FEF74AFC11
:103E40000948FEF747FC7F22A1780848CB091140BA
:103E5000034A9B009A58FEF73DFCC046FFFBFFFF5C
:103E6000A80400205C5F0010885F00103C5F001019
:103E700070B51D000400437C002D49D0002B01D0FB
:103E8000002303740023A08BA3826282031C3F28BB
:103E900031D998B2904224D89DB2E3820123637451
:103EA0006378A161002B2BD08022D2002A43E378D3
:103EB000002B02D0802189010A4301214B40A168D7
:103EC000E3700B685B0500D567E03C4B13400B606B
:103ED000FFE7FFE7FFE7FFE7FFE7FFE7A3681A60F9
:103EE00070BD131C9DB2E382012363746378A161EA
:103EF000002BD9D104E0402398B29042CCD9F0E70E
:103F00002A00E068FFF7EEF8842212022A43CEE787
:103F1000002B4CD0836842781B689B059E0D838ADA
:103F2000002A24D19B19818B9BB283820A1C3F29D2
:103F300014D9608A92B2C11A0D1C89B2914207D875
:103F4000E582834226D8CBD02000FFF7C3FEC7E727
:103F5000151CF5E7A18B0A1C3F29EAD84022608A8C
:103F600092B2C11A0D1C89B29142E9D9F0E7826977
:103F7000E168D0183200FFF7B5F8A38A6278F31829
:103F80009BB2A382002AE5D0E28AB242E2D96382E0
:103F9000E582A5E70A48FEF79DFB7F22A178094844
:103FA000CB091140084A9B009A58FEF793FB817891
:103FB0007F331940044A0548FEF78CFBFFFBFFFFE7
:103FC000885F00103C5F0010A80400205C5F0010B8
:103FD000024B5878431E9841C0B2704754090020E4
:103FE000024B18784007C00F7047C04654090020A4
:103FF000014B18787047C046960F0020F8B5474629
:10400000CE462B4D80B52B780700002B04D0012025
:104010000CBC90469946F8BD372200212548FFF791
:104020005BF8254C2000FDF7D7FF244B1C60244C87
:1040300020001C30FDF7ECFF200001F0A1FC214B1B
:104040001C60214B002B2AD0204E00243000FFF7AB
:1040500059FA1F4B1F4A98461860914633780BE077
:10406000424663001B191268DB009B5898470134D5
:104070003378E4B2A34209D39C42F1D315D14B4625
:10408000984701343378E4B2A342F5D23800FFF701
:1040900067FC3800FFF742FC01232B70B7E701F003
:1040A00073F80A4B1B78002BF0D000231B68FFDE4F
:1040B000960F0020540900200C0900208C090020D4
:1040C000B00400209009002005350010950F002055
:1040D0001C06002089510010F0B5DE4657464E46BA
:1040E0004546E0B58BB001F05DFA002800D18AE1C9
:1040F000CD4BCE4E9B4607AC3568EA69EFF3108195
:1041000072B61368002BFCD0BFF35F8F29622800C2
:10411000210001F0B1FAEA692B6ABFF35F8F002139
:10412000116083F31088002800D16CE16378082BBC
:10413000E2D85A469B00D3589F466368002BDBD0D9
:10414000A0689847D8E77F222179B94B0A405500EB
:10415000C8095B191B181800012720304579BD4399
:10416000457145790337BD434571002A00D18DE182
:10417000B04ADB7C002A00D184E1AF4A1278934236
:1041800000D37DE15A00D318AC4ADB001268D31883
:10419000002B00D137E11D6962792078A368A84718
:1041A000AAE7A34B01229A461B78012113435246EA
:1041B000137025235046D25C55468A43C254C25CD4
:1041C00004208243EA540133EA5C27788A43EA54A4
:1041D000EA5C8243EA54002000F054FE6023227916
:1041E0001340602B00D142E1402B00D132E1D206D6
:1041F000D20E012A00D15BE1002A00D14CE1022A53
:1042000000D034E17F25217A0D40082D00D92EE120
:10421000CA09914652466D00521986484A44D27CDA
:10422000002800D17BE184480078824200D374E109
:10423000500082188148D200006882180192002B39
:1042400000D172E1002A00D111E1D06800F01AFE1D
:10425000019B08AADB6800213800984704E1784BED
:10426000002B00D148E700E000BF45E7754B002B6D
:1042700000D141E76E4B18780007C00F00E000BF87
:104280003AE76D4F6B4A3B78002A00D1B5E0002534
:104290006A491A0088469D4214D2414609686B005B
:1042A0008C465B19DB0063445B69002B0DD02078E2
:1042B000984701353A78EDB2954200D91CE71300D2
:1042C0009D42EAD39D4200D09AE00135EDB295427D
:1042D00000D911E71300F3E723783722002154486F
:1042E0009846FEF7F9FE1022FF215748FEF7F4FE2C
:1042F0004F481222FF211330FEF7EEFE00F0B8FD0A
:104300004D4F4C4A3B780025002A6DD04F4A9246CB
:104310004A4A91463A00474690460FE04A4612689C
:104320006B0094465B19DB0063445B683800984778
:10433000434601351B78EDB2AB420BD39D42EDD322
:1043400058D1534638009847434601351B78EDB2A3
:10435000AB42F3D23E4B002B00D1CDE600E000BFD4
:10436000CAE6237837229846314B00219A46180036
:10437000FEF7B2FE53461022D81CFF21FEF7ACFE1A
:1043800050461222FF211330FEF7A6FE00F070FD0A
:10439000294F284A3B780025002A3BD0274A9146DE
:1043A0003A00474690460FE04A4612686B00944632
:1043B0005B19DB0063445B6838009847434601356E
:1043C0001B78EDB2AB420BD39D42EDD312D11F4B04
:1043D00038009847434601351B78EDB2AB42F3D223
:1043E00052462379937087E6404600F00BFF3B78F6
:1043F000002BAFD000235B68FFDE002B00D17BE6F3
:1044000000235B69FFDE0BB03CBC90469946A24698
:10441000AB46F0BD404600F0F5FE3B78002BDFD008
:1044200000235B68FFDEC046AC5F001090090020EF
:104430005409002005350010950F00201C060020AF
:104440000000000000000000570900200552001085
:1044500000000000C048002809D000F013FD08AAA1
:104460000021380000E000BF002800D044E620789A
:104470000021FFF78DFB20788021FFF789FB3BE6C9
:104480009B1ADBB2002BBED1B44D85E66279207851
:10449000A36800F00BFD2FE6202B00D103E1002BD9
:1044A000E5D16379092BE2D8AD4A9B00D3589F46EA
:1044B000237A0F2BDBD8AB4A5344DB78002A27D072
:1044C000A94A1278934221D2A84A5D00EB181568D8
:1044D000DB00ED18002DCAD0E86800F0D3FCEB68D3
:1044E00008AA002138009847002800D004E660237D
:1044F00022791340BBD162790A2A00D11BE10B2A31
:10450000B5D108A9380000F041FCF5E59B1ADBB2F3
:10451000002BACD19648974DDFE7121AD2B2002A91
:1045200000D1DFE0002BA2D1019363799846012BE3
:1045300004D0002B00D1E1E0032B98D1E388002BBD
:1045400012D143463800012B00D1E5E0FFF720FBF4
:104550002B00022153444B4420335A790A43012152
:104560005A715A790A435A71019D002D00D1C3E551
:10457000EB681800019300F085FCEB6808AA0021A5
:1045800038009847002000F07DFC26235246D35C7B
:10459000DB0700D5B0E5B4E7A27902926B78002B77
:1045A00002D1002A00D0EDE05346029A08A9380053
:1045B0005A7000F0EBFB9FE5E388012B00D056E733
:1045C00008222B789343524613709AE702202978E9
:1045D00006AB9A1C8B068908DB0F01400B43138046
:1045E00008A90223380000F0E9FB85E56B7806AAEC
:1045F0000232137008A90123380000F0DFFB7BE5CD
:10460000E388D8B21B0A0F2B00D930E75A4A9B0027
:10461000D3589F4608A800F03BFCA1793800FFF76B
:1046200083F902222B7813432B7065E5E388012B75
:1046300000D01CE708222B781343C4E74F4B002B14
:1046400000D114E700E000BF021E00D10FE713788D
:1046500008A9380000F0B2FB06E72189FFF784F8CB
:10466000021EF4D103E7FFF77BF8051E00D1FEE63A
:1046700006AA9446022363449846A91C0222180005
:10468000FEF730FD43462A001B8808A9380000F0D9
:1046900095FBE9E6FFF760F81223020008A938004D
:1046A00000F08CFBE0E6237A0F2B00D9DFE62D4AE1
:1046B0005344DB78002A1BD02B4A1278934215D240
:1046C0002A4A5D00EB181568DB00ED18002D00D1BB
:1046D000CDE6E86800F0D6FBEB6808AA00213800B8
:1046E0009847C1E6002B13D1224B1DE79B1ADBB282
:1046F000002B00D0BBE61E481E4DEBE72B005344B9
:104700004B4420335B7906AA9B07DB0F023266E736
:10471000184B1748019399E5FFF75EFA2B00022129
:1047200053444B4420335A798A4341465A715A794B
:104730008A435A7118E706AA0232137008A9013396
:10474000380000F03BFBD7E40D4B002B00D18EE688
:1047500000E000BF05008BE70000000001540010DE
:10476000D05F001005350010950F00201C060020BA
:104770001D53001038600010F85F001000000000AA
:1047800000000000501EC0B2FEF7EAFF002800D172
:104790006DE64378022B00D069E60125C3795A11F2
:1047A0002A4012019146524612789B1190461022DF
:1047B000414691430A0049460A4320212B408A433F
:1047C0005B0113435246137009239846C3788278DD
:1047D0001B021343C31880440393984500D38EE013
:1047E000B946474600237A7804930B2A04D13B78D4
:1047F0000497FB181F005A78042A00D037E6039B61
:10480000434ADB1B9BB20193424B00251B78002AD5
:1048100017D11BE0404B1B680593059A6B0094462B
:104820005B19DB0063449B68019A3900484698474E
:1048300000281BD1374B01351B78EDB2AB4200D2BB
:1048400015E69D42E6D30ED1344BEDE7019A3900CF
:10485000484600F0EDFC8046002857D12D4B1B78D0
:10486000002B00D103E600239B68FFDE8046434611
:10487000082B00D8FBE5019B984500D9F7E5524687
:10488000BB78D218D178FF2900D0F0E50498D57014
:10489000002814D08178994200D0E8E502797B792C
:1048A0009A4200D0E3E5C278012A08D9023A0431DD
:1048B0005144D2B2080001322900FEF70DFC7F21DD
:1048C0003A0000238C465178052907D1614690783B
:1048D0000140490051441331C0090D5411785B184F
:1048E0009BB252189845EED80A4B47441B78AB420E
:1048F00000D2BCE5039BBB4200D973E74F46084B8F
:10490000002B00D150E600E000BF4DE6004DAEE7C1
:1049100005350010950F00201C06002031520010B4
:104920000000000070B584B06B4606000C0001ADBD
:104930000A220021981DFEF7CFFB2E706C70032C0D
:1049400008D01BD9042C07D0052C34D12D4B1A7854
:10495000D20749D404B070BD2A4B1A78D207F9D5D2
:1049600004211A780A431A70274B1C68E269EFF396
:10497000108172B61368002B26D1FBE7022C1AD1E6
:10498000204B1A78D207E5D501211A788A431A708C
:104990001A780331A2431A7000225A701A788A4397
:1049A0001A70194B1C68E269EFF3108172B6136834
:1049B000002B09D1FBE7144B1C68E269EFF310816F
:1049C00072B61368002BFCD0BFF35F8F216220000A
:1049D000290000F01BFFE269236ABFF35F8F00210B
:1049E000116083F31088B5E704211A788A431A709E
:1049F000054B1C68E269EFF3108172B61368002B57
:104A0000E2D1FBE7540900209009002070B584B082
:104A10006B4606000C000A220021981DFEF75CFB85
:104A2000012301AD6B700E4B2C711C682E70E26976
:104A3000EFF3108372B611680029FCD0BFF35F8FCB
:104A400023622900200000F0E1FEE269236ABFF33F
:104A50005F8F0021116083F3108804B070BDC046E1
:104A600090090020002330B585B001AD6B8028701F
:104A70000633082202A86B70FEF734FB0C4B1C684F
:104A8000E269EFF3108372B611680029FCD0BFF31E
:104A90005F8F23622900200000F0B8FEE269236ADC
:104AA000BFF35F8F0021116083F3108805B030BD24
:104AB00090090020F0B5C64600B584B01D006B46D5
:104AC00080460F00160000210622981DFEF704FB09
:104AD000434601AC2370072363700F4B65711D685B
:104AE0002771A660EA69EFF3108372B61168002996
:104AF000FCD0BFF35F8F2B622100280000F086FE00
:104B0000EA692B6ABFF35F8F0021116083F310887D
:104B100004B004BC9046F0BD90090020F8B5DE4614
:104B200057464E4645460C00E0B5002A44D0497829
:104B3000052947D1E578AD07AD0FAB4242D1314BE6
:104B4000571EB946002698469B469A4607000EE037
:104B50000A9A13702378E4184E452DD06378052BFC
:104B600030D1E37801369B079B0FAB422AD1022D4F
:104B70003AD02ED8012D25D153469B78023B5A427C
:104B80005341214A9446072260792179024012025A
:104B900063440A439A4215DC21003800FEF744FFC3
:104BA00000280FD0A378DA09012AD1D10B9A13700B
:104BB0002378E4184E45D1D1012004E0FF32FF32C2
:104BC0009342E9D000203CBC90469946A246AB46B1
:104BD000F8BD5B469B78023B5A1E93410B4A5B42F1
:104BE00013408022D200CDE70723617922790B4060
:104BF0001B02134342469278022ADFD0402BCBD9C6
:104C0000E0E7C04654090020FF03000040FCFFFF1E
:104C1000CB7870B59B079B0F022B24D018D80022AD
:104C2000012B13D11A4B9B78023B5A425341194A2C
:104C3000072494464D790A792C4024026344144396
:104C400000229C4202DCFEF7EFFE0200100070BD65
:104C50000F4B9B78023B5A1E93410F4A5B42134015
:104C60008022D200E4E707234C790A7923401B0213
:104C70001343074A9278022A03D00022402BE2D93C
:104C8000E4E780240022A400A342DFD1DBE7C04692
:104C900054090020FF03000040FCFFFF7F2370B594
:104CA0000B40134C5B00C909E41864182034657983
:104CB000ED07ED0F04D163795B0703D5280070BDC4
:104CC0000025FBE701210B4E4942306800F0FCFF54
:104CD0006379DB0707D463795B0704D404220125D9
:104CE000637913436371306800F0D6FFE6E7C0468E
:104CF000540900208C09002070B50D0001210F4CD3
:104D00004942206800F0E0FF7F2129404B000C4918
:104D1000ED09C918491920314B790025DB0707D463
:104D20004B795B0704D504224B79013593434B71D2
:104D3000206800F0B1FF280070BDC0468C0900203B
:104D40005409002070B57F240C4065000E4C06000D
:104D50006419C8092418203465790020ED0700D5AE
:104D600070BD01256079284360713000FEF7FCFEBC
:104D70000028F5D10122637993436371637903328B
:104D800093436371ECE7C0465409002070B50A4CA8
:104D90000600082220000D00FEF7A4F900230021E0
:104DA000A360E36069563000C943C90FC9010022FE
:104DB000FFF7C8FF70BDC046F8080020F0B5C64632
:104DC0009046294C082200B5060020000D001F0067
:104DD000FEF788F94346A3600023E381EB79AA79C3
:104DE0001B0213431A1CBB4200D93A1C97B2A28182
:104DF000002B12D0002F1DD04346002B2ED03B1C81
:104E0000402F1DD89FB223787F2B1ED80021174A30
:104E10003B003000FFF796FF09E0002169560023B0
:104E2000C943C90FC90100223000FFF78BFF04BC42
:104E30009046F0BD23787F2B12D800210022E7E7AF
:104E400040239FB223787F2BE0D9084C3A0041469B
:104E50002000FEF747F980212200D9E70020E6E78D
:104E600080210022D4E7C046F80800201409002061
:104E700010B5142200210248FEF72EF910BDC046DD
:104E8000F8080020014B18617047C046F808002060
:104E900010B5054C010008222000FEF723F900237D
:104EA000A360E36010BDC046F8080020F8B53B4C95
:104EB0001D0023780600DA09C9098A4212D00020B1
:104EC000002D0ED1364B002B03D021003000FEF711
:104ED00093FD2369002B5AD022000221300098470D
:104EE0000120F8BDA7687F2B08D80020002FF8D03C
:104EF00038002A002B49FEF7F5F8A768E289E38815
:104F0000521992B27F19E281A760934201D03F2DDE
:104F100013D82369002B05D02200012130009847C7
:104F200000281DD0002161560023C943C90FC901C3
:104F300000223000FFF706FFD3E7A089811A0D1C7D
:104F400089B2402916D82378ADB27F2B14D800211E
:104F500082421ED0134A2B003000FFF7F3FEC0E759
:104F600000213000FEF714FE30008021FEF710FE15
:104F70000120B6E74025E6E782420CD0094C2A0022
:104F800039002000FEF7AEF880212200E3E701207F
:104F9000A7E70022DFE780210022DCE7F8080020F5
:104FA000F93900101409002010B50400FFF710F8BB
:104FB000002801D1002010BDFFF712F80028F9D118
:104FC000B6208000444303480019037901201840AB
:104FD000F1E7C046200600200300B62080005843B9
:104FE00010B5034B1030C01800F01CFB10BDC046BC
:104FF00020060020F0B5B625AD0045432C00C6467E
:10500000174E1034A41900B592B2200000F084FBB2
:105010000700200000F020FB3F2803D8380004BC24
:105020009046F0BD7319D97800209846FFF736FEF8
:105030000028F3D0200000F00FFB3F2805D843469E
:105040000020D978FFF758FEE8E796239B00EA187E
:1050500043469219D97800204023FFF773FEDDE71D
:1050600020060020F0B5B625AD0045432C00C6460D
:105070001F4E2C34A41900B592B2200000F004FC9D
:105080000700200000F0CEFA3F2803D8380004BC07
:105090009046F0BDFEF79CFF0028F7D0FEF7A0FF7A
:1050A0000028F3D1200000F0BDFA0028EED07319DB
:1050B000997800209846FFF7F1FD0028E6D0A62356
:1050C0009B009C466544AE1931004022200000F050
:1050D00023FB43469978002805D0030032000020C6
:1050E000FFF730FED2E70020FFF706FECEE7C0460E
:1050F00020060020F8B50500FEF76AFF002801D160
:105100000020F8BDFEF76CFF0028F9D1B624A400FA
:1051100065432E00144F2C36F619300000F082FA49
:105120000028EDD07C19A1780020FFF7B7FD0028FA
:10513000E6D0A6239B009C466544ED19290030006B
:10514000402200F0E9FAA178061E08D003002A00E8
:105150000020FFF7F7FD0028D2D03000D1E7002073
:10516000FFF7CAFDCCE7C046200600200300B620AA
:105170008000584310B5034B2C30C01800F06CFA77
:1051800010BDC04620060020B622F0B51B4C83B0EF
:10519000920000212000FDF79FFFFF236371184B51
:1051A00080260025E38001270823210020007600C7
:1051B00023732781320048310095073B103000F0FF
:1051C000F5F92100200049313200FF310097012319
:1051D0002C3000F0EBF992239B00E6183000FCF72E
:1051E000FBFE94239B00A662E61865623000FCF784
:1051F000F3FE2664656403B0F0BDC04620060020BF
:1052000000C2FFFF10B5094C052200212000FDF768
:1052100063FF20002C34103000F0B2FB200000F0BF
:10522000AFFB0121200000F0D1FB10BD20060020C3
:10523000F0B54B7983B00600022B03D0002528007F
:1052400003B0F0BD8B79022BF8D1CB79062BF5D8C2
:105250002F4FBB78002BF1D18B7809253B700C7850
:105260000C196378242B0BD1082A02D80FE0AA422C
:105270000DD32378E418ED186378ADB2242BF6D063
:10528000052B1CD0042B02D163790A2B25D0214C8D
:10529000200000F0E1F93F28D1D92600103EF17836
:1052A0000020FFF7FBFC0028C9D0200000F0D4F953
:1052B0003F2823D8F1780020FFF71EFDBFE721002B
:1052C0003000FFF7A5FC0028B8D0A3787B702378C6
:1052D000ED18E418ADB26378D4E70F4B277801934B
:1052E00001330093E119022302223000FFF716FC7C
:1052F0000028A3D00E35ED19ADB2C8E792239B006C
:10530000E218F17840230020FFF71CFD97E7C04624
:10531000200600203006002022060020F8B5602379
:105320001400127813400022202B01D01000F8BD89
:105330002E4D637927792E781B023B439E42F5D18F
:105340006378212B43D009D9222B24D0232B14D1CD
:10535000002945D0022912D00122E7E7202B0CD1E9
:10536000002936D00229F7D1214B002BF4D0A91DFA
:105370000020FEF7CDF80122D8E70022D6E71D4B2A
:10538000002BE9D0E178A37809021943002000E05E
:1053900000BF0122CAE7002922D00229DCD1012660
:1053A000A178E478280024020C4331002C71A14339
:1053B0002C3000F00BFB104B002BCDD031006208DD
:1053C00032402140002000E000BF0122AEE700296A
:1053D000C2D10A4A07232100FFF7F0FC0122A5E70A
:1053E0002100FFF7D3FC0122A0E7C04620060020E1
:1053F000113500100000000000000000260600200B
:10540000F8B54746CE4680B55D4C1E00E378804631
:105410000D008B4263D1962327009B001037E118C3
:10542000B2B2380000F030FA564B002B1CD0637932
:10543000FF2B19D0002E17D00022914605E0012342
:105440009C46E1444E450FD06379962292004A442F
:10545000A25C9A42F3D1380000F0F6F80028EED1B1
:10546000617900E000BFEAE7474B484C002B04D0CD
:10547000200000F0E9F800285BD0200000F0ECF8F4
:105480003F2859D8103CA378AB4205D00124200016
:105490000CBC90469946F8BD3D4B002B02D0002035
:1054A00000E000BFFEF794FD00281DD1394C20001C
:1054B00000F0B8F80028E9D1002EE7D0B306E5D116
:1054C0002C3CA1784046FFF7E9FB2500041EDDD007
:1054D000A978002300224046FFF734FCD7E7A378E1
:1054E0008B42D9D00024D2E7FEF77AFD294C002860
:1054F000DDD1200000F096F80028D8D025002C3D02
:10550000A9780020FFF7CAFB0028D0D09B239B007E
:10551000E71839004022200000F0FEF8A9780028A2
:1055200029D003003A000020FFF70CFC0028ADD181
:10553000BDE700E000BFA0E72700103FF97800209A
:10554000FFF7ACFB002801D1BB789DE7200000F0FD
:1055500083F83F2805D8F9780020FFF7CDFBBB780A
:1055600092E792239B00E218F97840230020FFF78E
:10557000E9FBBB7888E70020FFF7BEFB97E7C04652
:10558000200600200000000000000000300600207F
:10559000000000004C06002010B50020FEF72EFD94
:1055A00010BDC04610B5FEF723FD10BDF8B5474647
:1055B000CE4680B5984608AB1F7880230400894604
:1055C00015001B0200269A4227D84069002803D004
:1055D0000121494200F078FBA069002803D0012195
:1055E000494200F071FB4B4623604346A5806D00A5
:1055F000ADB2E3806B1EA381002360696D42E3813D
:10560000277265812382002801D000F045FBA06944
:105610000126002801D000F03FFB30000CBC904672
:105620009946F8BDC189028A89B292B28B1A9BB29F
:10563000914202D242899B1A9BB28288101C9A42E4
:1056400000D9181C80B27047C389008A181A4342D7
:105650005841C0B27047C04610B5C489018AA4B28F
:1056600089B2631A82889BB28C4202D240891B1A8B
:105670009BB2D01A80B210BD70B5040080690D00D5
:10568000002803D00121494200F01EFBE089218A55
:1056900080B289B2421A92B2884202D26389D21A87
:1056A00092B2A388934208D2C61AB2B2B04229DAA3
:1056B0006089121A92B222821A00002A02D125E0D1
:1056C000C91A89B28B42FBD92368E2889C465143B0
:1056D00028006144FDF706FD01250122238A9BB2C3
:1056E000591C9B18A2899BB28A4207DBA0692382BE
:1056F000002801D000F0D0FA280070BD62899B1804
:105700009BB2F3E7A0898642D5DDD1E7238A002545
:105710009BB219000022E4E7F8B54746CE460400E4
:10572000806980B50E001700002803D0012149428E
:1057300000F0CAFAE289218A92B289B2551AADB252
:105740008A4202D26389ED1AADB2A388AB420AD273
:10575000D01A81B282424DDA6289891A89B21D005B
:105760002182218A89B2002D48D03A1CAF423CD810
:1057700095B28B4203D8C91A89B28B42FBD95B1A06
:105780009FB2E3885943984623689C466144BD42D2
:1057900025D94046784383B21A0030009946FDF778
:1057A000A1FC43463000EA1B5A43484492B22168A8
:1057B000FDF798FC218A89B24B191A00994220DD25
:1057C0009BB262899B189BB2A0692382002801D0FA
:1057D00000F062FA28000CBC90469946F8BD42469B
:1057E00030006A43FDF77EFCE4E72A1C95B28B4249
:1057F000C1D9C4E7A2899042B1DDADE7228A92B255
:105800001300A1899BB29142DEDADAE7F8B5050010
:1058100040690E00002803D00121494200F054FAEB
:10582000EC892B8AA4B29BB2E21A92B2A34202D9AB
:105830006B89D21A92B2AB88934221D020009C424D
:1058400003D3C01A80B28342FBD92B68EA889C46F6
:10585000504331006044FDF745FCAB89A3420AD9AF
:105860000134A4B26869EC810127002801D000F05E
:1058700013FA3800F8BD6B89E4180134A4B2F1E7DB
:105880002F7A002FDAD1F4E7F8B557464546DE46C1
:105890004E461400E0B505000F00002A06D1200096
:1058A0003CBC90469946A246AB46F8BD40690028EC
:1058B00003D00121494200F007FAEA88EE899146B7
:1058C000298A2A7AB6B289B2AB88002A0FD1721A15
:1058D00092B28E4202D26989521A92B29A1A111C5D
:1058E00092B2A24200D9211C8CB2A04609E0A04687
:1058F0009C4206D34A46E41A544398463F190E0088
:105900001C0030009E4203D3C01A80B29842FBD2E2
:105910001B1A9BB29A464B4658432B689C466044E0
:10592000544518D84A46434639005A43FDF7DAFB36
:105930004346F218A3199BB2964202DCA9898A4217
:1059400002DD6A899B189BB26869EB810028A6D0AA
:1059500000F0A2F9A3E75346494659438BB21A0017
:1059600039009B46FDF7BEFB5346E21A4B46390011
:105970005A43594492B22868FDF7B4FBD8E7C046B1
:1059800010B504004069002803D00121494200F00D
:105990009BF9A069002803D00121494200F094F945
:1059A0000023E3812382A38860695B009BB25A1EB7
:1059B0005B42A2816381002801D000F06DF9A069EB
:1059C000002801D000F068F9012010BD70B5040076
:1059D00040690D00002803D00121494200F074F90C
:1059E000A069002803D00121494200F06DF96069E7
:1059F0002572002801D000F04FF9A069002801D0DD
:105A000000F04AF9012070BD10B5024800F0EAF834
:105A100010BDC0465C0F0020013930B5002900D10F
:105A2000B4E06F4B1A781211D5B22C003034092A29
:105A300000DDAEE00470012900D1A6E00F221C7841
:105A4000224014003034092A00D9A4E0447002290D
:105A500000D19AE05A781211D5B22C003034092ABC
:105A600000DD9BE08470032900D18EE00F225C787A
:105A7000224014003034092A00D991E0C47004296E
:105A800000D182E09A781211D5B22C003034092A64
:105A900000DD88E00471052977D00F229C78224030
:105AA00014003034092A00D97FE0447106296CD0F3
:105AB000DA781211D4B225003035092A00DD77E0FA
:105AC0008571072961D00F22DC7822401400303420
:105AD000092A00D96FE0C471082956D01A79121129
